:020000040800F2
:100000000028002035160008C5150008CB1500088B
:10001000D1150008D7150008DD1500080000000004
:10002000000000000000000000000000E3150008D0
:10003000EF15000800000000FB1500080716000877
:100040007D1600087D1600087D1600087D16000844
:100050007D1600087D1600087D1600087D16000834
:100060007D1600087D1600087D1600087D16000824
:100070007D1600087D1600087D1600087D16000814
:100080007D1600087D1600087D1600087D16000804
:100090007D1600087D1600087D1600087D160008F4
:1000A0007D1600087D1600087D1600087D160008E4
:1000B000151600087D160008000000007D160008D7
:1000C0007D16000800000000000000007D160008FA
:1000D000000000007D1600087D16000800000000EA
:1000E0007D1600087D1600087D160008000000003F
:1000F0000000000000000000000000000000000000
:0C01000000000000000000005FF808F1A3
:10010C0010B5054C237833B9044B13B10448AFF345
:10011C0000800123237010BD6C0000200000000043
:10012C00C42C000808B5034B1BB103490348AFF3BB
:10013C00008008BD0000000070000020C42C0008E6
:10014C0080B483B000AF7860094A7B6852F82330E2
:10015C00012B06D1064A7B68002142F823100123AB
:10016C0000E0002318460C37BD4680BC704700BF2A
:10017C008800002080B500AF194B1B68194A13602A
:10018C00194B1B68164A13604FF40051174801F0C5
:10019C005BFD03461A46144B1A60114B1A68124B3E
:1001AC001B689A4219D10E4B1A680E4B1B689A4267
:1001BC0013D10C4B1A680E4B1B689A420DD0094B8D
:1001CC001B680B4A13600A4B1B68002B05D1094BAB
:1001DC00C8221A60084B01221A6000BF80BD00BF04
:1001EC0018000020240000200C000020000C01400E
:1001FC0030000020000000208800002080B500AFF7
:10020C00194B5B68194A5360194B5B68164A53606B
:10021C004FF48041174801F017FD03461A46144B62
:10022C005A60114B5A68124B5B689A4219D10E4BAB
:10023C005A680E4B5B689A4213D10C4B5A680E4BA2
:10024C005B689A420DD0094B5B680B4A53600A4BB2
:10025C005B68002B05D1094BC8225A60084B012260
:10026C005A6000BF80BD00BF180000202400002091
:10027C000C000020000C0140300000200000002089
:10028C008800002080B500AF194B9B68194A936019
:10029C00194B9B68164A93604FF40041174801F0C4
:1002AC00D3FC03461A46144B9A60114B9A68124BB6
:1002BC009B689A4219D10E4B9A680E4B9B689A42D6
:1002CC0013D10C4B9A680E4B9B689A420DD0094B7C
:1002DC009B680B4A93600A4B9B68002B05D1094B1A
:1002EC00C8229A60084B01229A6000BF80BD00BFF3
:1002FC0018000020240000200C000020000C0140FD
:10030C0030000020000000208800002080B582B062
:10031C0000AF78607B68092B00F2808101A252F853
:10032C0023F000BF59030008A1030008E9030008EB
:10033C003104000879040008C1040008090500080C
:10034C005105000899050008E1050008002201216B
:10035C00C64801F090FC00220221C44801F08BFC3D
:10036C0000220421C14801F086FC00220821BF486C
:10037C0001F081FC00221021BC4801F07CFC002221
:10038C002021BA4801F077FC01224021B74801F046
:10039C0072FC67E101220121B44801F06CFC0022DF
:1003AC000221B24801F067FC00220421AF4801F0A1
:1003BC0062FC01220821AD4801F05DFC01221021F4
:1003CC00AA4801F058FC01222021A84801F053FC56
:1003DC0001224021A54801F04EFC43E100220121FD
:1003EC00A24801F048FC00220221A04801F043FC85
:1003FC00012204219D4801F03EFC002208219B486B
:10040C0001F039FC00221021984801F034FC012243
:10041C002021964801F02FFC00224021934801F046
:10042C002AFC1FE100220121904801F024FC00224B
:10043C0002218E4801F01FFC002204218B4801F0A0
:10044C001AFC00220821894801F015FC0122102118
:10045C00864801F010FC01222021844801F00BFC9D
:10046C0000224021814801F006FCFBE00122012121
:10047C007E4801F000FC002202217C4801F0FBFBCD
:10048C0000220421794801F0F6FB0122082177486B
:10049C0001F0F1FB01221021744801F0ECFB002269
:1004AC002021724801F0E7FB002240216F4801F047
:1004BC00E2FBD7E0002201216C4801F0DCFB0122B9
:1004CC0002216A4801F0D7FB00220421674801F0A1
:1004DC00D2FB00220821654801F0CDFB012210213E
:1004EC00624801F0C8FB00222021604801F0C3FBE8
:1004FC00002240215D4801F0BEFBB3E00022012147
:10050C005A4801F0B8FB01220221584801F0B3FB14
:10051C0000220421554801F0AEFB0022082153486B
:10052C0001F0A9FB00221021504801F0A4FB00228D
:10053C0020214E4801F09FFB002240214B4801F046
:10054C009AFB8FE000220121484801F094FB002225
:10055C000221464801F08FFB00220421434801F0A0
:10056C008AFB01220821414801F085FB0122102160
:10057C003E4801F080FB012220213C4801F07BFB2E
:10058C0001224021394801F076FB6BE00022012169
:10059C00364801F070FB00220221344801F06BFB5D
:1005AC0000220421314801F066FB002208212F486B
:1005BC0001F061FB002210212C4801F05CFB0022B1
:1005CC0020212A4801F057FB00224021274801F046
:1005DC0052FB47E000220121244801F04CFB002291
:1005EC000221224801F047FB002204211F4801F0A0
:1005FC0042FB002208211D4801F03DFB0122102185
:10060C001A4801F038FB00222021184801F033FB76
:10061C0000224021154801F02EFB23E0012201218C
:10062C00124801F028FB01220221104801F023FBA3
:10063C00012204210D4801F01EFB012208210B4868
:10064C0001F019FB01221021084801F014FB0122D2
:10065C002021064801F00FFB01224021034801F044
:10066C000AFB00BF00BF0837BD4680BD000C01402F
:10067C0080B500AF694B1B68013B032B00F2AD80CA
:10068C0001A252F823F000BFA5060008F7060008E7
:10069C00470700089707000800228021604801F0F6
:1006AC00EAFA01224FF480715D4801F0E4FA01226C
:1006BC004FF400715A4801F0DEFA01224FF48061C8
:1006CC00574801F0D8FA574B1B681846FFF71EFE27
:1006DC00554B5B68012B40F09880504B02221A60FE
:1006EC000121FA2000F08AFE8FE0012280214C4883
:1006FC0001F0C1FA00224FF48071494801F0BBFAB5
:10070C0001224FF40071464801F0B5FA01224FF472
:10071C008061434801F0AFFA424B5B681846FFF723
:10072C00F5FD414B5B68012B71D13C4B03221A60E8
:10073C000121FA2000F062FE69E001228021384894
:10074C0001F099FA01224FF48071354801F093FAC7
:10075C0000224FF40071324801F08DFA01224FF45F
:10076C0080612F4801F087FA2E4B9B681846FFF7E3
:10077C00CDFD2D4B5B68012B4BD1284B04221A600D
:10078C000121FA2000F03AFE43E0012280212448A6
:10079C0001F071FA01224FF48071214801F06BFADB
:1007AC0001224FF400711E4801F065FA00224FF44B
:1007BC0080611B4801F05FFA1A4BDB681846FFF7A3
:1007CC00A5FD194B5B68012B25D1144B01221A6036
:1007DC000121FA2000F012FE1DE0002280211048B9
:1007EC0001F049FA00224FF480710D4801F043FAF0
:1007FC0000224FF400710A4801F03DFA00224FF438
:10080C008061074801F037FA06E000BF04E000BF42
:10081C0002E000BF00E000BF00BF80BD3C00002034
:10082C0000080140A0000020C800002080B500AFE7
:10083C00B24B1B68032B00F2E58001A252F823F0A7
:10084C005D080008AD080008250900089B09000890
:10085C00AB4B1B68AB4A82FB03129210DB17D31A0B
:10086C00A94A1360A64B1968A64B83FB01239A1067
:10087C00CB17D21A13469B0013445B00CA1A531CA5
:10088C00A14A53609E4B1B684FF47A7202FB03F330
:10089C000221184600F0B2FD984B01221A60B8E014
:1008AC0001221021994801F0E6F9002220219748F5
:1008BC0001F0E1F900224021944801F0DCF9944B5D
:1008CC009B68012B40F0A080924B1B688D4A82FBE9
:1008DC0003129210DB17D31A8B4A13608D4B1968D5
:1008EC00884B83FB01239A10CB17D21A13469B001B
:1008FC0013445B00CA1A531C834A5360854B1B6814
:10090C004FF47A7202FB03F30221184600F076FDD5
:10091C007A4B02221A6077E0002210217B4801F00A
:10092C00AAF901222021794801F0A5F900224021E1
:10093C00764801F0A0F9764B9B68012B66D1764B7B
:10094C001B68704A82FB03129210DB17D31A6E4A93
:10095C001360714B19686B4B83FB01239A10CB17F7
:10096C00D21A13469B0013445B00CA1A531C664AE6
:10097C005360694B1B684FF47A7202FB03F302213C
:10098C00184600F03BFD5D4B03221A603EE000224E
:10099C0010215E4801F06FF9002220215B4801F024
:1009AC006AF901224021594801F065F9584B9B68BE
:1009BC00012B2DD1524B1B68524A82FB0312921011
:1009CC00DB17D31A504A13604D4B19684D4B83FB00
:1009DC0001239A10CB17D21A13469B0013445B00C9
:1009EC00CA1A531C484A5360454B1B684FF47A7221
:1009FC0002FB03F30221184600F000FD3F4B0122DD
:100A0C001A6005E000BF04E000BF02E000BF00E098
:100A1C0000BF424B1B68032B00F2F88001A252F876
:100A2C0023F000BF410A0008910A00082D0B0008B2
:100A3C00A30B0008374B1B68324A82FB031292103F
:100A4C00DB17D31A304A9360324B19682D4B83FB5A
:100A5C0001239A10CB17D21A13469B0013445B0048
:100A6C00CA1A531C284AD3602A4B1B684FF47A725B
:100A7C0002FB03F30321184600F0C0FC274B0222B3
:100A8C001A60CAE001220221204801F0F4F8002289
:100A9C0004211E4801F0EFF8002208211B4801F048
:100AAC00EAF81B4BDB68012B40F0B280194B1B683A
:100ABC00144A82FB03129210DB17D31A124A93606A
:100ACC00144B19680F4B83FB01239A10CB17D21AC6
:100ADC0013469B0013445B00CA1A531C0A4AD3608A
:100AEC000C4B1B684FF47A7202FB03F3032118467C
:100AFC0000F084FC094B02221A6089E0940000206B
:100B0C004400002067666666A000002000080140D3
:100B1C00C80000204C000020480000209800002055
:100B2C00002202215A4801F0A6F80122042158485B
:100B3C0001F0A1F800220821554801F09CF8554B12
:100B4C00DB68012B66D1544B1B68544A82FB0312A1
:100B5C009210DB17D31A524A93604F4B19684F4BC4
:100B6C0083FB01239A10CB17D21A13469B00134414
:100B7C005B00CA1A531C4A4AD360474B1B684FF49C
:100B8C007A7202FB03F30321184600F037FC454B45
:100B9C0003221A603EE0002202213D4801F06BF86E
:100BAC00002204213A4801F066F801220821384855
:100BBC0001F061F8374BDB68012B2DD13A4B1B68E8
:100BCC00364A82FB03129210DB17D31A344A936015
:100BDC00354B1968314B83FB01239A10CB17D21A72
:100BEC0013469B0013445B00CA1A531C2C4AD36057
:100BFC002D4B1B684FF47A7202FB03F3032118464A
:100C0C0000F0FCFB274B01221A6005E000BF04E05A
:100C1C0000BF02E000BF00E000BF1E4B1B69012BB0
:100C2C0034D11F4B5B68013B1D4A53601C4BDB6886
:100C3C00013B1B4AD3601A4B5B68002B0EDA184B36
:100C4C001B68013B164A1360154B09225A60144B62
:100C5C001B68002B02DA124B00221A60104BDB6867
:100C6C00002B0EDA0E4B9B68013B0D4A93600C4B2C
:100C7C000922DA600A4B9B68002B02DA084B00222F
:100C8C009A6004214FF47A7000F0B8FB00BF80BD6D
:100C9C0000080140C8000020480000206766666616
:100CAC00A0000020980000204400002080B500AF78
:100CBC00274B5B69012B2DD1264B1B68DBB21A46E7
:100CCC001021254800F0D7FF224B1B68DBB21A46D7
:100CDC000221214800F0CFFF002220211E4800F005
:100CEC00CAFF002204211C4800F0C5FF002240214D
:100CFC00194800F0C0FF00220821174800F0BBFF84
:100D0C00144B1B68C3F10103124A13600521FA202E
:100D1C0000F074FB0120FFF713FA0346012B0BD1F3
:100D2C000E4B1B6801330D4A13600C4B1B68632B75
:100D3C0002DD0A4B00221A600220FFF701FA03467B
:100D4C00012B03D1054B1B68054A136000BF80BD06
:100D5C00C800002040000020000801405000002086
:100D6C004400002080B500AF274B5B69012B2DD1CF
:100D7C0000221021254800F07EFF0022022123488A
:100D8C0000F079FF224B1B68DBB21A4620211F486A
:100D9C0000F071FF1E4B1B68DBB21A4604211B4886
:100DAC0000F069FF00224021184800F064FF002287
:100DBC000821164800F05FFF154B1B68C3F10103B7
:100DCC00134A13600521FA2000F018FB0120FFF7ED
:100DDC00B7F90346012B0BD10E4B1B6801330D4A9F
:100DEC0013600C4B1B68632B02DD0A4B00221A604C
:100DFC000220FFF7A5F90346012B03D1054B1B6815
:100E0C00054A136000BF80BDC800002000080140E7
:100E1C0040000020540000204800002080B500AFA6
:100E2C00274B5B69012B2DD100221021254800F0A6
:100E3C0022FF00220221234800F01DFF0022202166
:100E4C00204800F018FF002204211E4800F013FF78
:100E5C001D4B1B68DBB21A4640211A4800F00BFFF1
:100E6C00194B1B68DBB21A460821164800F003FF29
:100E7C00154B1B68C3F10103134A13600521FA20BB
:100E8C0000F0BCFA0120FFF75BF90346012B0BD1F4
:100E9C000E4B1B6801330D4A13600C4B1B68632B04
:100EAC0002DD0A4B00221A600220FFF749F90346C3
:100EBC00012B03D1054B1B68054A136000BF80BD95
:100ECC00C80000200008014040000020580000200D
:100EDC004C00002080B500AF934B1B68042B00F234
:100EEC00188101A252F823F0090F0008170F00080F
:100EFC00730F000815100008B51000088A4B01226A
:100F0C001A608A4B00221A600CE1FFF78FFC00205C
:100F1C00FFF716F90346012B40F0FD80824B0222AD
:100F2C001A60FFF7C3FE824B1B68824A82FB0312D6
:100F3C009210DB17D31A804A13607D4B19687D4BD6
:100F4C0083FB01239A10CB17D21A13469B00134430
:100F5C005B00CA1A784B5A60774B00229A60764B2A
:100F6C000222DA60D7E0FFF7A1FE714B1B68714AD1
:100F7C0082FB03129210DB17D31A6F4A13606C4B6F
:100F8C0019686C4B83FB01239A10CB17D21A1346AA
:100F9C009B0013445B00CA1A674B5A60664B0022D5
:100FAC009A60654B0222DA600020FFF7C9F803460D
:100FBC00012B40F0B280614B1B685D4A13605A4BA9
:100FCC0003221A60FFF7CEFE5D4B1B68594A82FB69
:100FDC0003129210DB17D31A574A1360584B196837
:100FEC00544B83FB01239A10CB17D21A13469B0048
:100FFC0013445B00CA1A504B5A604F4B00229A6044
:10100C004D4B0322DA6088E0FFF7ACFE4C4B1B68BB
:10101C00484A82FB03129210DB17D31A464A13601C
:10102C00474B1968434B83FB01239A10CB17D21AF9
:10103C0013469B0013445B00CA1A3F4B5A603E4B4D
:10104C0000229A603C4B0322DA600020FFF778F80C
:10105C000346012B63D13B4B1B68394A1360324B5F
:10106C0004221A60FFF7DAFE374B1B68314A82FB09
:10107C0003129210DB17D31A2F4A1360324B1968E4
:10108C002C4B83FB01239A10CB17D21A13469B00CF
:10109C0013445B00CA1A284B5A60274B00229A60F3
:1010AC00254B0422DA603AE0FFF7B8FE264B1B68AA
:1010BC00204A82FB03129210DB17D31A1E4A1360CC
:1010CC00214B19681B4B83FB01239A10CB17D21AA7
:1010DC0013469B0013445B00CA1A174B5A60164BFD
:1010EC0000229A60144B0422DA600020FFF728F8E3
:1010FC000346012B15D1154B1B68134A13600A4B81
:10110C0001221A60094B00221A60114B00221A604E
:10111C0007E000BF06E000BF04E000BF02E000BF34
:10112C0000E000BF00BF80BD9C00002094000020A8
:10113C005000002067666666A00000204400002076
:10114C00580000204C0000205400002048000020D3
:10115C009800002080B500AF00F08CFA00F040F849
:10116C0000F0C6F800F078F81A4801F0E1F90A200E
:10117C0000F036F900214FF47A7000F03FF90121AC
:10118C004FF47A7000F03AF902214FF47A7000F0C3
:10119C0035F903214FF47A7000F030F904214FF443
:1011AC007A7000F02BF905214FF47A7000F026F9D3
:1011BC00094B1B68012B08D10121084800F073FD75
:1011CC0000214FF47A7000F019F9FFF783FEFFF756
:1011DC004FFAEDE7E0000020C800002000080140B5
:1011EC0080B590B000AF07F11803282200211846F3
:1011FC0001F05AFD3B1D00221A605A609A60DA60B9
:10120C001A610223BB610123BB621023FB62002322
:10121C007B6307F11803184600F05EFD0346002BB4
:10122C0001D000F0D7F80F237B600023BB600023B4
:10123C00FB6000233B6100237B613B1D00211846B2
:10124C0000F0CAFF0346002B01D000F0C3F800BF2A
:10125C004037BD4680BD000080B586B000AF07F1B9
:10126C00080300221A605A609A60DA603B4600223A
:10127C001A605A601D4B4FF080421A601B4B41F6AE
:10128C003F725A60194B00229A60184B0922DA609F
:10129C00164B00221A61154B00229A61134801F07B
:1012AC00F7F80346002B01D000F094F84FF480536C
:1012BC00BB6007F1080319460C4801F08DFA034690
:1012CC00002B01D000F086F800233B6000237B60EC
:1012DC003B461946054801F059FC0346002B01D04A
:1012EC0000F078F800BF1837BD4680BDE000002044
:1012FC0080B586B000AF07F1080300221A605A606F
:10130C009A60DA60284B9B69274A43F00403936187
:10131C00254B9B6903F004037B607B68224B9B6924
:10132C00214A43F0080393611F4B9B6903F00803A8
:10133C003B603B68002240F2FF711C4800F09BFCB4
:10134C0000227F211A4800F096FC40F2FF73BB602C
:10135C000123FB6000233B6102237B6107F108033F
:10136C001946124800F0F6FA7F23BB600123FB609C
:10137C0000233B6102237B6107F1080319460C48EB
:10138C0000F0E8FA4FF46043BB600023FB600123DC
:10139C003B6107F108031946054800F0DBFA00BF72
:1013AC001837BD4680BD00BF001002400008014048
:1013BC00000C014080B582B000AF786000F03CF8C2
:1013CC00FEF7D8FEFEF71AFFFEF75CFF00BF0837EA
:1013DC00BD4680BD80B400AF72B600BFFEE7000012
:1013EC0080B483B000AF7860034A7B68136000BFA1
:1013FC000C37BD4680BC70475C00002080B483B0C5
:10140C0000AF78603960094B1B687A6892FBF3F285
:10141C0007493B6841F82320064A3B68002142F803
:10142C00231000BF0C37BD4680BC70475C00002009
:10143C00B0000020C800002080B400AF314B1B6806
:10144C00002B0BDD2F4B1B68013B2E4A13602D4BE1
:10145C001B68002B02DC2C4B01221A60294B5B68A9
:10146C00002B0BDD274B5B68013B264A5360254B59
:10147C005B68002B02DC244B01225A60214B9B68D9
:10148C00002B0BDD1F4B9B68013B1E4A93601D4BD1
:10149C009B68002B02DC1C4B01229A60194BDB6809
:1014AC00002B0BDD174BDB68013B164AD360154B49
:1014BC00DB68002B02DC144B0122DA60114B1B6938
:1014CC00002B0BDD0F4B1B69013B0E4A13610D4BBF
:1014DC001B69002B02DC0C4B01221A61094B1B69A6
:1014EC00002B0BDD074B1B69013B064A1361054BB7
:1014FC001B69002B02DC044B01221A6100BFBD46A4
:10150C0080BC7047B0000020C800002080B485B0BB
:10151C0000AF154B9B69144A43F001039361124BC6
:10152C009B6903F00103BB60BB680F4BDB690E4A80
:10153C0043F08053D3610C4BDB6903F080537B6029
:10154C007B680A4B5B68FB60FB6823F0E063FB6025
:10155C00FB6843F08063FB60044AFB68536000BF88
:10156C001437BD4680BC704700100240000001409B
:10157C0080B584B000AF78607B681B68B3F1804F96
:10158C0013D10C4BDB690B4A43F00103D361094BBC
:10159C00DB6903F00103FB60FB68002200211C20C7
:1015AC0000F0A1F91C2000F0BAF900BF1037BD46BD
:1015BC0080BD00BF0010024080B400AFFEE780B4D5
:1015CC0000AFFEE780B400AFFEE780B400AFFEE7EB
:1015DC0080B400AFFEE780B400AF00BFBD4680BC56
:1015EC00704780B400AF00BFBD4680BC704780B46C
:1015FC0000AF00BFBD4680BC704780B500AF00F0A7
:10160C007FF800BF80BD000080B500AF024800F03D
:10161C00DBFF00BF80BD00BFE000002080B400AF46
:10162C0000BFBD4680BC7047FFF7F8FF0B480C4964
:10163C000C4A002302E0D458C4500433C4188C4222
:10164C00F9D3094A094C002301E013600432A24289
:10165C00FBD301F005FBFFF77DFD70470000002078
:10166C006C000020082D00086C0000202C010020CC
:10167C00FEE7000080B500AF084B1B68074A43F03B
:10168C0010031360032000F023F90F2000F008F87A
:10169C00FFF73CFF0023184680BD00BF002002402E
:1016AC0080B582B000AF7860124B1A68124B1B7871
:1016BC0019464FF47A73B3FBF1F3B2FBF3F318460C
:1016CC0000F03BF90346002B01D001230EE07B68B0
:1016DC000F2B0AD8002279684FF0FF3000F003F985
:1016EC00064A7B681360002300E001231846083784
:1016FC00BD4680BD60000020680000206400002012
:10170C0080B400AF054B1B781A46054B1B6813447D
:10171C00034A136000BFBD4680BC704768000020C0
:10172C002801002080B400AF024B1B681846BD4650
:10173C0080BC70472801002080B485B000AF786071
:10174C007B6803F00703FB600C4BDB68BB60BA687B
:10175C004FF6FF031340BB60FB681A02BB681343D0
:10176C0043F0BF6343F40033BB60044ABB68D360EF
:10177C0000BF1437BD4680BC704700BF00ED00E0D1
:10178C0080B400AF044BDB681B0A03F00703184658
:10179C00BD4680BC704700BF00ED00E080B483B054
:1017AC0000AF0346FB7197F90730002B0BDBFB797D
:1017BC0003F01F02064997F907305B09012000FA74
:1017CC0002F241F8232000BF0C37BD4680BC7047A5
:1017DC0000E100E080B483B000AF03463960FB71D8
:1017EC0097F90730002B0ADB3B68DAB20C4997F902
:1017FC0007301201D2B20B4483F800230AE03B6895
:10180C00DAB20849FB7903F00F03043B1201D2B2A0
:10181C000B441A7600BF0C37BD4680BC704700BF26
:10182C0000E100E000ED00E080B489B000AFF860AA
:10183C00B9607A60FB6803F00703FB61FB69C3F1D5
:10184C000703042B28BF0423BB61FB690433062B5D
:10185C0002D9FB69033B00E000237B614FF0FF32B0
:10186C00BB6902FA03F3DA43BB681A407B699A40FE
:10187C004FF0FF317B6901FA03F3D9437B680B40CE
:10188C00134318462437BD4680BC704780B582B0E0
:10189C0000AF78607B68013BB3F1807F01D30123FB
:1018AC000FE00A4A7B68013B53600F214FF0FF3079
:1018BC00FFF790FF054B00229A60044B07221A6039
:1018CC00002318460837BD4680BD00BF10E000E07D
:1018DC0080B582B000AF78607868FFF72DFF00BF4D
:1018EC000837BD4680BD80B586B000AF0346B960F1
:1018FC007A60FB7300237B61FFF742FF78617A68A3
:10190C00B9687869FFF790FF024697F90F301146D6
:10191C001846FFF75FFF00BF1837BD4680BD80B586
:10192C0082B000AF0346FB7197F907301846FFF7FA
:10193C0035FF00BF0837BD4680BD80B582B000AF13
:10194C0078607868FFF7A2FF034618460837BD4653
:10195C0080BD000080B48BB000AF7860396000238C
:10196C007B6200233B6248E101227B6A02FA03F3AB
:10197C00FB613B681B68FA691340BB61BA69FB6980
:10198C009A4240F037813B685B68A34A93425ED031
:10199C00A14A934275D8A14A934258D09F4A934288
:1019AC006FD89F4A934252D09D4A934269D89D4A20
:1019BC0093424CD09B4A934263D89B4A934246D065
:1019CC00994A93425DD8122B2AD8122B59D801A2CE
:1019DC0052F823F05B1A0008351A0008471A000861
:1019EC00891A00088F1A00088F1A00088F1A00082D
:1019FC008F1A00088F1A00088F1A00088F1A000817
:101A0C008F1A00088F1A00088F1A00088F1A000806
:101A1C008F1A00088F1A00083D1A0008511A000886
:101A2C00824A934213D02CE03B68DB683B6229E08E
:101A3C003B68DB6804333B6224E03B68DB680833BB
:101A4C003B621FE03B68DB680C333B621AE03B688F
:101A5C009B68002B02D104233B6213E03B689B681C
:101A6C00012B05D108233B627B68FA691A6109E0F6
:101A7C0008233B627B68FA695A6103E000233B62EE
:101A8C0000E000BFBB69FF2B01D87B6801E07B68DD
:101A9C0004337B61BB69FF2B02D87B6A9B0002E09D
:101AAC007B6A083B9B003B617B691A680F213B6991
:101ABC0001FA03F3DB431A40396A3B6901FA03F379
:101ACC001A437B691A603B685B6803F08053002BF8
:101ADC0000F09080564B9B69554A43F0010393618B
:101AEC00534B9B6903F00103BB60BB68514A7B6A93
:101AFC009B08023352F82330FB607B6A03F003032C
:101B0C009B000F2202FA03F3DB43FA681340FB60DD
:101B1C007B68494A93420DD07B68484A934207D070
:101B2C007B68474A934201D1022304E0032302E07D
:101B3C00012300E000237A6A02F003029200934032
:101B4C00FA681343FB603B497B6A9B080233FA68D3
:101B5C0041F823203B685B6803F48013002B06D00C
:101B6C00384B9A683749BB6913438B6006E0354B99
:101B7C009A68BB69DB43334913408B603B685B68F5
:101B8C0003F40013002B06D02E4BDA682D49BB69E9
:101B9C001343CB6006E02B4BDA68BB69DB43294966
:101BAC001340CB603B685B6803F40033002B06D01A
:101BBC00244B5A682349BB6913434B6006E0214B05
:101BCC005A68BB69DB431F4913404B603B685B6839
:101BDC0003F48033002B06D01A4B1A681949BB69E1
:101BEC0013430B6006E0174B1A68BB69DB431549BE
:101BFC0013400B607B6A01337B623B681A687B6A1B
:101C0C0022FA03F3002B7FF4AFAE00BF00BF2C37DA
:101C1C00BD4680BC704700BF000032100000311080
:101C2C000000221000002110000012100000111002
:101C3C00001002400000014000080140000C01406F
:101C4C00001001400004014080B485B000AF786002
:101C5C000B467B807B689A687B881340002B02D0F4
:101C6C000123FB7301E00023FB73FB7B1846143745
:101C7C00BD4680BC704780B483B000AF78600B4623
:101C8C007B8013467B707B78002B03D07A887B6833
:101C9C001A6103E07B881A047B681A6100BF0C3759
:101CAC00BD4680BC704780B485B000AF78600B46F1
:101CBC007B807B68DB68FB607A88FB6813401A04C6
:101CCC00FB68D9437B880B401A437B681A6100BFC1
:101CDC001437BD4680BC704780B586B000AF7860C5
:101CEC007B68002B01D101236CE27B681B6803F03D
:101CFC000103002B00F08780924B5B6803F00C0310
:101D0C00042B0CD08F4B5B6803F00C03082B12D107
:101D1C008C4B5B6803F48033B3F5803F0BD1894B5C
:101D2C001B6803F40033002B6CD07B685B68002BC2
:101D3C0068D1012346E27B685B68B3F5803F06D12E
:101D4C00804B1B687F4A43F4803313602EE07B6822
:101D5C005B68002B0CD17B4B1B687A4A23F48033D5
:101D6C001360784B1B68774A23F4802313601DE0C3
:101D7C007B685B68B3F5A02F0CD1724B1B68714A62
:101D8C0043F4802313606F4B1B686E4A43F480331B
:101D9C0013600BE06B4B1B686A4A23F480331360AF
:101DAC00684B1B68674A23F4802313607B685B686D
:101DBC00002B13D0FFF7B6FC386108E0FFF7B2FC3C
:101DCC0002463B69D31A642B01D90323FAE15D4B1C
:101DDC001B6803F40033002BF0D014E0FFF7A2FCD7
:101DEC00386108E0FFF79EFC02463B69D31A642B6E
:101DFC0001D90323E6E1534B1B6803F40033002B9A
:101E0C00F0D100E000BF7B681B6803F00203002BDD
:101E1C0063D04C4B5B6803F00C03002B0BD0494B8D
:101E2C005B6803F00C03082B1CD1464B5B6803F476
:101E3C008033002B16D1434B1B6803F00203002B9D
:101E4C0005D07B681B69012B01D00123BAE13D4B06
:101E5C001B6823F0F8027B685B69DB00394913438C
:101E6C000B603AE07B681B69002B20D0364B0122BB
:101E7C001A60FFF757FC386108E0FFF753FC024685
:101E8C003B69D31A022B01D903239BE12D4B1B6811
:101E9C0003F00203002BF0D02A4B1B6823F0F8024E
:101EAC007B685B69DB00274913430B6015E0264B0D
:101EBC0000221A60FFF736FC386108E0FFF732FCAD
:101ECC0002463B69D31A022B01D903237AE11D4B3D
:101EDC001B6803F00203002BF0D17B681B6803F036
:101EEC000803002B3AD07B689B69002B19D0174B49
:101EFC0001221A60FFF716FC386108E0FFF712FCAC
:101F0C0002463B69D31A022B01D903235AE10D4B2C
:101F1C005B6A03F00203002BF0D0012000F09AFA68
:101F2C001CE00A4B00221A60FFF7FCFB38610FE043
:101F3C00FFF7F8FB02463B69D31A022B08D903239F
:101F4C0040E100BF001002400000424280044242C7
:101F5C009E4B5B6A03F00203002BE9D17B681B6884
:101F6C0003F00403002B00F0A6800023FB75974BB5
:101F7C00DB6903F08053002B0DD1944BDB69934A42
:101F8C0043F08053D361914BDB6903F08053BB600A
:101F9C00BB680123FB758E4B1B6803F48073002B0D
:101FAC0018D18B4B1B688A4A43F480731360FFF77C
:101FBC00B9FB386108E0FFF7B5FB02463B69D31A61
:101FCC00642B01D90323FDE0814B1B6803F4807360
:101FDC00002BF0D07B68DB68012B06D17B4B1B6A96
:101FEC007A4A43F0010313622DE07B68DB68002B17
:101FFC000CD1764B1B6A754A23F001031362734BA9
:10200C001B6A724A23F0040313621CE07B68DB68D2
:10201C00052B0CD16D4B1B6A6C4A43F00403136205
:10202C006A4B1B6A694A43F0010313620BE0674B6E
:10203C001B6A664A23F001031362644B1B6A634AF2
:10204C0023F0040313627B68DB68002B15D0FFF7C9
:10205C0069FB38610AE0FFF765FB02463B69D31A5E
:10206C0041F28832934201D90323ABE0574B1B6AF0
:10207C0003F00203002BEED014E0FFF753FB3861A2
:10208C000AE0FFF74FFB02463B69D31A41F2883254
:10209C00934201D9032395E04C4B1B6A03F00203D6
:1020AC00002BEED1FB7D012B05D1484BDB69474A58
:1020BC0023F08053D3617B68DB69002B00F08180B7
:1020CC00424B5B6803F00C03082B61D07B68DB6927
:1020DC00022B46D13F4B00221A60FFF723FB3861DD
:1020EC0008E0FFF71FFB02463B69D31A022B01D90C
:1020FC00032367E0354B1B6803F00073002BF0D112
:10210C007B681B6AB3F5803F08D1304B5B6823F4C6
:10211C0000327B689B682D4913434B602B4B5B68EB
:10212C0023F474127B68196A7B685B6A0B4327493A
:10213C0013434B60274B01221A60FFF7F3FA386107
:10214C0008E0FFF7EFFA02463B69D31A022B01D9DC
:10215C00032337E01D4B1B6803F00073002BF0D0FA
:10216C002FE01C4B00221A60FFF7DCFA386108E004
:10217C00FFF7D8FA02463B69D31A022B01D9032385
:10218C0020E0124B1B6803F00073002BF0D118E019
:10219C007B68DB69012B01D1012313E00B4B5B68DE
:1021AC00FB60FB6803F480327B681B6A9A4206D1A1
:1021BC00FB6803F470127B685B6A9A4201D00123BE
:1021CC0000E0002318461837BD4680BD00100240C1
:1021DC00007000406000424280B584B000AF78606F
:1021EC0039607B68002B01D10123D0E06A4B1B685E
:1021FC0003F007033A689A4210D9674B1B6823F027
:10220C00070265493B6813430B60634B1B6803F083
:10221C0007033A689A4201D00123B8E07B681B6837
:10222C0003F00203002B20D07B681B6803F004032F
:10223C00002B05D0594B5B68584A43F4E06353605C
:10224C007B681B6803F00803002B05D0534B5B68BD
:10225C00524A43F460535360504B5B6823F0F002D6
:10226C007B689B684D4913434B607B681B6803F08C
:10227C000103002B40D07B685B68012B07D1474BD7
:10228C001B6803F40033002B15D101237FE07B681E
:10229C005B68022B07D1414B1B6803F00073002BCA
:1022AC0009D1012373E03D4B1B6803F00203002BA3
:1022BC0001D101236BE0394B5B6823F003027B688F
:1022CC005B68364913434B60FFF72CFAF8600AE061
:1022DC00FFF728FA0246FB68D31A41F28832934280
:1022EC0001D9032353E02D4B5B6803F00C027B6890
:1022FC005B689B009A42EBD1274B1B6803F00703EA
:10230C003A689A4210D2244B1B6823F007022249E8
:10231C003B6813430B60204B1B6803F007033A68C0
:10232C009A4201D0012332E07B681B6803F004035E
:10233C00002B08D0194B5B6823F4E0627B68DB68E8
:10234C00164913434B607B681B6803F00803002B92
:10235C0009D0124B5B6823F460527B681B69DB006D
:10236C000E4913434B6000F021F802460B4B5B689F
:10237C001B0903F00F030A49CB5C22FA03F3094A49
:10238C001360094B1B681846FFF78AF9002318469F
:10239C001037BD4680BD00BF002002400010024037
:1023AC00DC2C0008600000206400002080B487B0A2
:1023BC0000AF0023FB600023BB6000237B61002384
:1023CC007B6000233B611E4B5B68FB60FB6803F08A
:1023DC000C03042B02D0082B03D027E0194B3B61D4
:1023EC0027E0FB689B0C03F00F03174AD35C7B6060
:1023FC00FB6803F48033002B10D0114B5B685B0C33
:10240C0003F00103114AD35CBB607B680D4A02FBED
:10241C0003F2BB68B2FBF3F37B6104E07B680C4A0C
:10242C0002FB03F37B617B693B6102E0054B3B6183
:10243C0000BF3B6918461C37BD4680BC704700BFC7
:10244C000010024000127A00EC2C0008FC2C000852
:10245C0000093D0080B485B000AF78600A4B1B6862
:10246C000A4AA2FB03235B0A7A6802FB03F3FB60B4
:10247C0000BFFB685A1EFA60002BF9D100BF00BFE9
:10248C001437BD4680BC704760000020D34D6210ED
:10249C0080B582B000AF78607B68002B01D101233E
:1024AC0041E07B6893F83D30DBB2002B06D17B68B2
:1024BC00002283F83C207868FFF75AF87B680222E8
:1024CC0083F83D207B681A687B68043319461046F4
:1024DC0000F06EFA7B68012283F846207B680122AB
:1024EC0083F83E207B68012283F83F207B68012221
:1024FC0083F840207B68012283F841207B6801220D
:10250C0083F842207B68012283F843207B680122F8
:10251C0083F844207B68012283F845207B680122E4
:10252C0083F83D20002318460837BD4680BD0000C7
:10253C0080B485B000AF78607B6893F83D30DBB237
:10254C00012B01D0012335E07B68022283F83D206A
:10255C007B681B68DA687B681B6842F00102DA60F2
:10256C007B681B68164A934209D07B681B68B3F1E1
:10257C00804F04D07B681B68124A934211D17B6850
:10258C001B689B6803F00703FB60FB68062B10D0ED
:10259C007B681B681A687B681B6842F001021A6032
:1025AC0007E07B681B681A687B681B6842F00102B5
:1025BC001A60002318461437BD4680BC704700BF14
:1025CC00002C01400004004080B582B000AF786060
:1025DC007B681B681B6903F00203022B22D17B680A
:1025EC001B68DB6803F00203022B1BD17B681B68A2
:1025FC006FF002021A617B6801221A777B681B68F4
:10260C009B6903F00303002B03D0786800F0B4F946
:10261C0005E0786800F0A7F9786800F0B6F97B68F7
:10262C0000221A777B681B681B6903F00403042BD8
:10263C0022D17B681B68DB6803F00403042B1BD1DD
:10264C007B681B686FF004021A617B6802221A77A0
:10265C007B681B689B6903F44073002B03D078687C
:10266C0000F08AF905E0786800F07DF9786800F0F0
:10267C008CF97B6800221A777B681B681B6903F056
:10268C000803082B22D17B681B68DB6803F0080366
:10269C00082B1BD17B681B686FF008021A617B68E2
:1026AC0004221A777B681B68DB6903F00303002B99
:1026BC0003D0786800F060F905E0786800F053F911
:1026CC00786800F062F97B6800221A777B681B68D7
:1026DC001B6903F01003102B22D17B681B68DB688D
:1026EC0003F01003102B1BD17B681B686FF01002DA
:1026FC001A617B6808221A777B681B68DB6903F414
:10270C004073002B03D0786800F036F905E0786848
:10271C0000F029F9786800F038F97B6800221A7704
:10272C007B681B681B6903F00103012B0ED17B68CE
:10273C001B68DB6803F00103012B07D17B681B6866
:10274C006FF001021A617868FEF734FE7B681B6833
:10275C001B6903F08003802B0ED17B681B68DB6840
:10276C0003F08003802B07D17B681B686FF080021D
:10277C001A61786800F06BFA7B681B681B6903F0C0
:10278C004003402B0ED17B681B68DB6803F04003D1
:10279C00402B07D17B681B686FF040021A61786888
:1027AC0000F0FCF87B681B681B6903F02003202BEE
:1027BC000ED17B681B68DB6803F02003202B07D14C
:1027CC007B681B686FF020021A61786800F036FA9B
:1027DC0000BF0837BD4680BD80B584B000AF7860BF
:1027EC0039600023FB737B6893F83C30012B01D1DB
:1027FC000223B4E07B68012283F83C207B68022230
:10280C0083F83D207B681B689B68BB60BB6823F02A
:10281C007703BB60BB6823F47F43BB607B681B689A
:10282C00BA689A603B681B68B3F5005F3ED0B3F59D
:10283C00005F00F28780B3F5805F00F08680B3F50F
:10284C00805F7FD8702B1AD0702B7BD8602B50D028
:10285C00602B77D8502B3CD0502B73D8402B58D0B2
:10286C00402B6FD8302B64D0302B6BD8202B60D002
:10287C00202B67D8002B5CD0102B5AD062E07B68E1
:10288C0018683B6899683B685A683B68DB6800F0DD
:10289C005EF97B681B689B68BB60BB6843F0770381
:1028AC00BB607B681B68BA689A604FE07B681868ED
:1028BC003B6899683B685A683B68DB6800F047F9ED
:1028CC007B681B689A687B681B6842F480429A603C
:1028DC003CE07B6818683B6859683B68DB681A46C3
:1028EC0000F0BEF87B681B685021184600F015F903
:1028FC002CE07B6818683B6859683B68DB681A46B3
:10290C0000F0DCF87B681B686021184600F005F9C4
:10291C001CE07B6818683B6859683B68DB681A46A2
:10292C0000F09EF87B681B684021184600F0F5F813
:10293C000CE07B681A683B681B681946104600F06F
:10294C00ECF803E00123FB7300E000BF7B6801227D
:10295C0083F83D207B68002283F83C20FB7B1846E3
:10296C001037BD4680BD80B483B000AF786000BF27
:10297C000C37BD4680BC704780B483B000AF786024
:10298C0000BF0C37BD4680BC704780B483B000AF2D
:10299C00786000BF0C37BD4680BC704780B483B0F4
:1029AC0000AF786000BF0C37BD4680BC704700009C
:1029BC0080B485B000AF786039607B681B68FB60C1
:1029CC007B68254A934207D07B68B3F1804F03D0D4
:1029DC007B68224A934208D1FB6823F07003FB60AA
:1029EC003B685B68FA681343FB607B681A4A934246
:1029FC0007D07B68B3F1804F03D07B68174A9342B2
:102A0C0008D1FB6823F44073FB603B68DB68FA6811
:102A1C001343FB60FB6823F080023B685B69134344
:102A2C00FB607B68FA681A603B689A687B68DA62BC
:102A3C003B681A687B689A627B68074A934203D1A9
:102A4C003B681A697B681A637B6801225A6100BF74
:102A5C001437BD4680BC7047002C01400004004078
:102A6C0080B487B000AFF860B9607A60FB681B6A0D
:102A7C007B61FB681B6A23F00102FB681A62FB682E
:102A8C009B693B613B6923F0F0033B617B681B0155
:102A9C003A6913433B617B6923F00A037B617A69D2
:102AAC00BB6813437B61FB683A699A61FB687A697E
:102ABC001A6200BF1C37BD4680BC704780B487B01B
:102ACC0000AFF860B9607A60FB681B6A7B61FB68D9
:102ADC001B6A23F01002FB681A62FB689B693B615E
:102AEC003B6923F470433B617B681B033A691343D6
:102AFC003B617B6923F0A0037B61BB681B017A6996
:102B0C0013437B61FB683A699A61FB687A691A62C4
:102B1C0000BF1C37BD4680BC704780B485B000AF89
:102B2C00786039607B689B68FB60FB6823F07003FE
:102B3C00FB603A68FB68134343F00703FB607B6858
:102B4C00FA689A6000BF1437BD4680BC704780B4E9
:102B5C0087B000AFF860B9607A603B60FB689B6837
:102B6C007B617B6923F47F437B613B681A027B6842
:102B7C001A43BB6813437A6913437B61FB687A6918
:102B8C009A6000BF1C37BD4680BC704780B485B0CE
:102B9C0000AF786039607B6893F83C30012B01D131
:102BAC00022341E07B68012283F83C207B680222EF
:102BBC0083F83D207B681B685B68FB607B681B6847
:102BCC009B68BB60FB6823F07003FB603B681B6871
:102BDC00FA681343FB607B681B68FA685A607B6871
:102BEC001B68144A934209D07B681B68B3F1804F71
:102BFC0004D07B681B68104A93420CD1BB6823F04D
:102C0C008003BB603B685B68BA681343BB607B683E
:102C1C001B68BA689A607B68012283F83D207B6848
:102C2C00002283F83C20002318461437BD4680BC94
:102C3C00704700BF002C01400004004080B483B0FA
:102C4C0000AF786000BF0C37BD4680BC704780B4C5
:102C5C0083B000AF786000BF0C37BD4680BC7047B6
:102C6C0070B500260C4D0D4C641BA410A64209D166
:102C7C0000F022F800260A4D0A4C641BA410A64250
:102C8C0005D170BD55F8043B98470136EEE755F871
:102C9C00043B98470136F2E7002D0008002D000890
:102CAC00002D0008042D000803460244934200D175
:102CBC00704703F8011BF9E7F8B500BFF8BC08BC76
:102CCC009E467047F8B500BFF8BC08BC9E467047DE
:102CDC0000000000000000000102030406070809C0
:102CEC0002030405060708090A0B0C0D0E0F101041
:042CFC0001020000D1
:042D00003101000895
:042D04000D010008B5
:102D0800C8000000C8000000C80000000100000062
:102D180001000000010000000100000001000000A7
:102D28000100000001000000010000000100000097
:102D38000100000001000000010000000100000087
:102D48000100000005000000020000000300000070
:102D58000500000002000000030000000A00000057
:0C2D68000024F400100000000100000036
:0400000508001635A4
:00000001FF
